:100000000C9472000C947E000C947E000C947E0084
:100010000C947E000C947E000C947E000C947E0068
:100020000C947E000C947E000C947E000C947E0058
:100030000C947E000C947E000C947E000C947E0048
:100040000C947E000C94B3000C947E000C947E0003
:100050000C947E000C947E000C947E000C947E0028
:100060000C947E000C947E000C947E000C947E0018
:100070000C947E000C947E000C947E000C947E0008
:100080000C947E000C947E000C947E000C947E00F8
:100090000C947E000C947E000C947E000C947E00E8
:1000A0000C947E000C947E000C947E000C947E00D8
:1000B0000C947E000C947E000C947E000C947E00C8
:1000C0000C947E000C947E000C947E000C947E00B8
:1000D0000C947E000C947E000C947E000C947E00A8
:1000E0000C947E0011241FBECFEFD1E2DEBFCDBF46
:1000F00000E00CBF0E94BD000C94CC000C940000EA
:10010000279A2F98109280001092810010926F0011
:100110000895F894E1E8F0E0808188608083808130
:100120008360808380818C7F8083808184608083F2
:1001300082E19AE79093890080938800109285006D
:1001400010928400EFE6F0E08081826080837894F2
:100150000895F89410928100EFE6F0E080818D7FA1
:100160008083789408958F938FB78F9385B180584B
:1001700085B98F918FBF8F9118950E9480000E9442
:1001800089002AEA36EE86E991E02150304080402D
:0C0190009040D9F70000F5CFF894FFCFA5
:00000001FF
